{"abi":[{"type":"function","name":"clientCloseEscrow","inputs":[{"name":"server","type":"address","internalType":"address"}],"outputs":[],"stateMutability":"nonpayable"},{"type":"function","name":"escrowAccounts","inputs":[{"name":"","type":"address","internalType":"address"},{"name":"","type":"address","internalType":"address"}],"outputs":[{"name":"","type":"address","internalType":"contract EscrowAccount"}],"stateMutability":"view"},{"type":"function","name":"getEscrowAccountAddress","inputs":[{"name":"client","type":"address","internalType":"address"},{"name":"server","type":"address","internalType":"address"}],"outputs":[{"name":"","type":"address","internalType":"address"}],"stateMutability":"view"},{"type":"function","name":"getEscrowTokenAddress","inputs":[{"name":"client","type":"address","internalType":"address"},{"name":"server","type":"address","internalType":"address"}],"outputs":[{"name":"","type":"address","internalType":"address"}],"stateMutability":"view"},{"type":"function","name":"getEscrowTokenBalance","inputs":[{"name":"client","type":"address","internalType":"address"},{"name":"server","type":"address","internalType":"address"}],"outputs":[{"name":"","type":"uint256","internalType":"uint256"}],"stateMutability":"view"},{"type":"function","name":"openEscrow","inputs":[{"name":"paymentAddress","type":"address","internalType":"address"},{"name":"tokenAddress","type":"address","internalType":"address"},{"name":"amount","type":"uint256","internalType":"uint256"}],"outputs":[],"stateMutability":"nonpayable"},{"type":"function","name":"serverCloseEscrow","inputs":[{"name":"client","type":"address","internalType":"address"}],"outputs":[],"stateMutability":"nonpayable"},{"type":"function","name":"settlePayment","inputs":[{"name":"paymentAddress","type":"address","internalType":"address"},{"name":"amount","type":"uint256","internalType":"uint256"}],"outputs":[],"stateMutability":"nonpayable"}],"bytecode":{"object":"0x6080604052348015600e575f5ffd5b506121cb8061001c5f395ff3fe608060405234801561000f575f5ffd5b5060043610610086575f3560e01c806371236c251161005957806371236c251461010e57806388e584431461013e578063d08d7a311461016e578063ea843a521461019e57610086565b80631bad58721461008a57806327baeb51146100a65780633e60e348146100d65780636e55c237146100f2575b5f5ffd5b6100a4600480360381019061009f9190610f7b565b6101ba565b005b6100c060048036038101906100bb9190610fa6565b610321565b6040516100cd9190610ffc565b60405180910390f35b6100f060048036038101906100eb919061103f565b61042d565b005b61010c60048036038101906101079190610f7b565b6107bc565b005b61012860048036038101906101239190610fa6565b610923565b604051610135919061108c565b60405180910390f35b61015860048036038101906101539190610fa6565b610a2f565b6040516101659190611100565b60405180910390f35b61018860048036038101906101839190610fa6565b610a6b565b604051610195919061108c565b60405180910390f35b6101b860048036038101906101b39190611119565b610b0b565b005b5f5f5f3373ffffffffffffffffffffffffffffffffffffffff1673ffffffffffffffffffffffffffffffffffffffff1681526020019081526020015f205f8373ffffffffffffffffffffffffffffffffffffffff1673ffffffffffffffffffffffffffffffffffffffff1681526020019081526020015f205f9054906101000a900473ffffffffffffffffffffffffffffffffffffffff1690505f73ffffffffffffffffffffffffffffffffffffffff168173ffffffffffffffffffffffffffffffffffffffff16036102c2576040517f08c379a00000000000000000000000000000000000000000000000000000000081526004016102b9906111c3565b60405180910390fd5b8073ffffffffffffffffffffffffffffffffffffffff166363f4db786040518163ffffffff1660e01b81526004015f604051808303815f87803b158015610307575f5ffd5b505af1158015610319573d5f5f3e3d5ffd5b505050505050565b5f5f5f8473ffffffffffffffffffffffffffffffffffffffff1673ffffffffffffffffffffffffffffffffffffffff1681526020019081526020015f205f8373ffffffffffffffffffffffffffffffffffffffff1673ffffffffffffffffffffffffffffffffffffffff1681526020019081526020015f205f9054906101000a900473ffffffffffffffffffffffffffffffffffffffff1673ffffffffffffffffffffffffffffffffffffffff166397a5acbe6040518163ffffffff1660e01b8152600401602060405180830381865afa158015610401573d5f5f3e3d5ffd5b505050506040513d601f19601f8201168201806040525081019061042591906111f5565b905092915050565b5f5f5f3373ffffffffffffffffffffffffffffffffffffffff1673ffffffffffffffffffffffffffffffffffffffff1681526020019081526020015f205f8473ffffffffffffffffffffffffffffffffffffffff1673ffffffffffffffffffffffffffffffffffffffff1681526020019081526020015f205f9054906101000a900473ffffffffffffffffffffffffffffffffffffffff1690505f73ffffffffffffffffffffffffffffffffffffffff168173ffffffffffffffffffffffffffffffffffffffff1603610535576040517f08c379a000000000000000000000000000000000000000000000000000000000815260040161052c906111c3565b60405180910390fd5b5f8173ffffffffffffffffffffffffffffffffffffffff16638bea736e6040518163ffffffff1660e01b8152600401602060405180830381865afa15801561057f573d5f5f3e3d5ffd5b505050506040513d601f19601f820116820180604052508101906105a39190611234565b9050828173ffffffffffffffffffffffffffffffffffffffff1663dd62ed3e33306040518363ffffffff1660e01b81526004016105e192919061125f565b602060405180830381865afa1580156105fc573d5f5f3e3d5ffd5b505050506040513d601f19601f8201168201806040525081019061062091906111f5565b1015610661576040517f08c379a0000000000000000000000000000000000000000000000000000000008152600401610658906112d0565b60405180910390fd5b8073ffffffffffffffffffffffffffffffffffffffff166323b872dd3386866040518463ffffffff1660e01b815260040161069e939291906112ee565b6020604051808303815f875af19250505080156106d957506040513d601f19601f820116820180604052508101906106d69190611358565b60015b610748578173ffffffffffffffffffffffffffffffffffffffff1663c2738c92846040518263ffffffff1660e01b81526004016107169190610ffc565b5f604051808303815f87803b15801561072d575f5ffd5b505af115801561073f573d5f5f3e3d5ffd5b505050506107b6565b806107b4578273ffffffffffffffffffffffffffffffffffffffff1663c2738c92856040518263ffffffff1660e01b81526004016107869190610ffc565b5f604051808303815f87803b15801561079d575f5ffd5b505af11580156107af573d5f5f3e3d5ffd5b505050505b505b50505050565b5f5f5f8373ffffffffffffffffffffffffffffffffffffffff1673ffffffffffffffffffffffffffffffffffffffff1681526020019081526020015f205f3373ffffffffffffffffffffffffffffffffffffffff1673ffffffffffffffffffffffffffffffffffffffff1681526020019081526020015f205f9054906101000a900473ffffffffffffffffffffffffffffffffffffffff1690505f73ffffffffffffffffffffffffffffffffffffffff168173ffffffffffffffffffffffffffffffffffffffff16036108c4576040517f08c379a00000000000000000000000000000000000000000000000000000000081526004016108bb906111c3565b60405180910390fd5b8073ffffffffffffffffffffffffffffffffffffffff1663b49f10276040518163ffffffff1660e01b81526004015f604051808303815f87803b158015610909575f5ffd5b505af115801561091b573d5f5f3e3d5ffd5b505050505050565b5f5f5f8473ffffffffffffffffffffffffffffffffffffffff1673ffffffffffffffffffffffffffffffffffffffff1681526020019081526020015f205f8373ffffffffffffffffffffffffffffffffffffffff1673ffffffffffffffffffffffffffffffffffffffff1681526020019081526020015f205f9054906101000a900473ffffffffffffffffffffffffffffffffffffffff1673ffffffffffffffffffffffffffffffffffffffff16638bea736e6040518163ffffffff1660e01b8152600401602060405180830381865afa158015610a03573d5f5f3e3d5ffd5b505050506040513d601f19601f82011682018060405250810190610a279190611234565b905092915050565b5f602052815f5260405f20602052805f5260405f205f915091509054906101000a900473ffffffffffffffffffffffffffffffffffffffff1681565b5f5f5f8473ffffffffffffffffffffffffffffffffffffffff1673ffffffffffffffffffffffffffffffffffffffff1681526020019081526020015f205f8373ffffffffffffffffffffffffffffffffffffffff1673ffffffffffffffffffffffffffffffffffffffff1681526020019081526020015f205f9054906101000a900473ffffffffffffffffffffffffffffffffffffffff16905092915050565b5f829050818173ffffffffffffffffffffffffffffffffffffffff1663dd62ed3e33306040518363ffffffff1660e01b8152600401610b4b92919061125f565b602060405180830381865afa158015610b66573d5f5f3e3d5ffd5b505050506040513d601f19601f82011682018060405250810190610b8a91906111f5565b1015610bcb576040517f08c379a0000000000000000000000000000000000000000000000000000000008152600401610bc2906112d0565b60405180910390fd5b5f73ffffffffffffffffffffffffffffffffffffffff165f5f3373ffffffffffffffffffffffffffffffffffffffff1673ffffffffffffffffffffffffffffffffffffffff1681526020019081526020015f205f8673ffffffffffffffffffffffffffffffffffffffff1673ffffffffffffffffffffffffffffffffffffffff1681526020019081526020015f205f9054906101000a900473ffffffffffffffffffffffffffffffffffffffff1673ffffffffffffffffffffffffffffffffffffffff1614610ccf576040517f08c379a0000000000000000000000000000000000000000000000000000000008152600401610cc6906113f3565b60405180910390fd5b338484604051610cde90610f10565b610cea93929190611411565b604051809103905ff080158015610d03573d5f5f3e3d5ffd5b505f5f3373ffffffffffffffffffffffffffffffffffffffff1673ffffffffffffffffffffffffffffffffffffffff1681526020019081526020015f205f8673ffffffffffffffffffffffffffffffffffffffff1673ffffffffffffffffffffffffffffffffffffffff1681526020019081526020015f205f6101000a81548173ffffffffffffffffffffffffffffffffffffffff021916908373ffffffffffffffffffffffffffffffffffffffff1602179055508273ffffffffffffffffffffffffffffffffffffffff166323b872dd335f5f3373ffffffffffffffffffffffffffffffffffffffff1673ffffffffffffffffffffffffffffffffffffffff1681526020019081526020015f205f8873ffffffffffffffffffffffffffffffffffffffff1673ffffffffffffffffffffffffffffffffffffffff1681526020019081526020015f205f9054906101000a900473ffffffffffffffffffffffffffffffffffffffff16856040518463ffffffff1660e01b8152600401610e8b939291906112ee565b6020604051808303815f875af1158015610ea7573d5f5f3e3d5ffd5b505050506040513d601f19601f82011682018060405250810190610ecb9190611358565b610f0a576040517f08c379a0000000000000000000000000000000000000000000000000000000008152600401610f01906114b6565b60405180910390fd5b50505050565b610cc1806114d583390190565b5f5ffd5b5f73ffffffffffffffffffffffffffffffffffffffff82169050919050565b5f610f4a82610f21565b9050919050565b610f5a81610f40565b8114610f64575f5ffd5b50565b5f81359050610f7581610f51565b92915050565b5f60208284031215610f9057610f8f610f1d565b5b5f610f9d84828501610f67565b91505092915050565b5f5f60408385031215610fbc57610fbb610f1d565b5b5f610fc985828601610f67565b9250506020610fda85828601610f67565b9150509250929050565b5f819050919050565b610ff681610fe4565b82525050565b5f60208201905061100f5f830184610fed565b92915050565b61101e81610fe4565b8114611028575f5ffd5b50565b5f8135905061103981611015565b92915050565b5f5f6040838503121561105557611054610f1d565b5b5f61106285828601610f67565b92505060206110738582860161102b565b9150509250929050565b61108681610f40565b82525050565b5f60208201905061109f5f83018461107d565b92915050565b5f819050919050565b5f6110c86110c36110be84610f21565b6110a5565b610f21565b9050919050565b5f6110d9826110ae565b9050919050565b5f6110ea826110cf565b9050919050565b6110fa816110e0565b82525050565b5f6020820190506111135f8301846110f1565b92915050565b5f5f5f606084860312156111305761112f610f1d565b5b5f61113d86828701610f67565b935050602061114e86828701610f67565b925050604061115f8682870161102b565b9150509250925092565b5f82825260208201905092915050565b7f457363726f7720646f6573206e6f7420657869737400000000000000000000005f82015250565b5f6111ad601583611169565b91506111b882611179565b602082019050919050565b5f6020820190508181035f8301526111da816111a1565b9050919050565b5f815190506111ef81611015565b92915050565b5f6020828403121561120a57611209610f1d565b5b5f611217848285016111e1565b91505092915050565b5f8151905061122e81610f51565b92915050565b5f6020828403121561124957611248610f1d565b5b5f61125684828501611220565b91505092915050565b5f6040820190506112725f83018561107d565b61127f602083018461107d565b9392505050565b7f496e73756666696369656e7420616c6c6f77616e6365000000000000000000005f82015250565b5f6112ba601683611169565b91506112c582611286565b602082019050919050565b5f6020820190508181035f8301526112e7816112ae565b9050919050565b5f6060820190506113015f83018661107d565b61130e602083018561107d565b61131b6040830184610fed565b949350505050565b5f8115159050919050565b61133781611323565b8114611341575f5ffd5b50565b5f815190506113528161132e565b92915050565b5f6020828403121561136d5761136c610f1d565b5b5f61137a84828501611344565b91505092915050565b7f457363726f7720616c72656164792065786973747320666f72207468697320635f8201527f6c69656e742d7365727665722070616972000000000000000000000000000000602082015250565b5f6113dd603183611169565b91506113e882611383565b604082019050919050565b5f6020820190508181035f83015261140a816113d1565b9050919050565b5f6060820190506114245f83018661107d565b611431602083018561107d565b61143e604083018461107d565b949350505050565b7f546f6b656e206465706f73697420696e746f20657363726f77206661696c65645f8201527f2e00000000000000000000000000000000000000000000000000000000000000602082015250565b5f6114a0602183611169565b91506114ab82611446565b604082019050919050565b5f6020820190508181035f8301526114cd81611494565b905091905056fe610100604052348015610010575f5ffd5b50604051610cc1380380610cc183398181016040528101906100329190610199565b3373ffffffffffffffffffffffffffffffffffffffff1660808173ffffffffffffffffffffffffffffffffffffffff16815250508273ffffffffffffffffffffffffffffffffffffffff1660a08173ffffffffffffffffffffffffffffffffffffffff16815250508173ffffffffffffffffffffffffffffffffffffffff1660c08173ffffffffffffffffffffffffffffffffffffffff16815250508073ffffffffffffffffffffffffffffffffffffffff1660e08173ffffffffffffffffffffffffffffffffffffffff16815250505f5f5f6101000a81548160ff0219169083151502179055505f5f60016101000a81548160ff0219169083151502179055505050506101e9565b5f5ffd5b5f73ffffffffffffffffffffffffffffffffffffffff82169050919050565b5f6101688261013f565b9050919050565b6101788161015e565b8114610182575f5ffd5b50565b5f815190506101938161016f565b92915050565b5f5f5f606084860312156101b0576101af61013b565b5b5f6101bd86828701610185565b93505060206101ce86828701610185565b92505060406101df86828701610185565b9150509250925092565b60805160a05160c05160e051610a6e6102535f395f81816101c9015281816101f0015281816103ce015281816104a7015281816105ce015261062b01525f6104e301525f61060a01525f818160f1015281816101170152818161028d015261033f0152610a6e5ff3fe608060405234801561000f575f5ffd5b5060043610610060575f3560e01c8063442890d51461006457806363f4db78146100825780638bea736e1461008c57806397a5acbe146100aa578063b49f1027146100c8578063c2738c92146100d2575b5f5ffd5b61006c6100ee565b6040516100799190610761565b60405180910390f35b61008a610115565b005b6100946101c6565b6040516100a19190610761565b60405180910390f35b6100b26101ed565b6040516100bf9190610792565b60405180910390f35b6100d061028b565b005b6100ec60048036038101906100e791906107d9565b61033d565b005b5f7f0000000000000000000000000000000000000000000000000000000000000000905090565b7f000000000000000000000000000000000000000000000000000000000000000073ffffffffffffffffffffffffffffffffffffffff163373ffffffffffffffffffffffffffffffffffffffff16146101a3576040517f08c379a000000000000000000000000000000000000000000000000000000000815260040161019a90610884565b60405180910390fd5b60015f5f6101000a81548160ff0219169083151502179055506101c46105a2565b565b5f7f0000000000000000000000000000000000000000000000000000000000000000905090565b5f7f000000000000000000000000000000000000000000000000000000000000000073ffffffffffffffffffffffffffffffffffffffff166370a08231306040518263ffffffff1660e01b81526004016102479190610761565b602060405180830381865afa158015610262573d5f5f3e3d5ffd5b505050506040513d601f19601f8201168201806040525081019061028691906108b6565b905090565b7f000000000000000000000000000000000000000000000000000000000000000073ffffffffffffffffffffffffffffffffffffffff163373ffffffffffffffffffffffffffffffffffffffff1614610319576040517f08c379a000000000000000000000000000000000000000000000000000000000815260040161031090610884565b60405180910390fd5b60015f60016101000a81548160ff02191690831515021790555061033b6105a2565b565b7f000000000000000000000000000000000000000000000000000000000000000073ffffffffffffffffffffffffffffffffffffffff163373ffffffffffffffffffffffffffffffffffffffff16146103cb576040517f08c379a00000000000000000000000000000000000000000000000000000000081526004016103c290610884565b60405180910390fd5b807f000000000000000000000000000000000000000000000000000000000000000073ffffffffffffffffffffffffffffffffffffffff166370a08231306040518263ffffffff1660e01b81526004016104259190610761565b602060405180830381865afa158015610440573d5f5f3e3d5ffd5b505050506040513d601f19601f8201168201806040525081019061046491906108b6565b10156104a5576040517f08c379a000000000000000000000000000000000000000000000000000000000815260040161049c9061092b565b60405180910390fd5b7f000000000000000000000000000000000000000000000000000000000000000073ffffffffffffffffffffffffffffffffffffffff1663a9059cbb7f0000000000000000000000000000000000000000000000000000000000000000836040518363ffffffff1660e01b8152600401610520929190610949565b6020604051808303815f875af115801561053c573d5f5f3e3d5ffd5b505050506040513d601f19601f8201168201806040525081019061056091906109a5565b61059f576040517f08c379a000000000000000000000000000000000000000000000000000000000815260040161059690610a1a565b60405180910390fd5b50565b5f5f9054906101000a900460ff1680156105c757505f60019054906101000a900460ff165b15610720577f000000000000000000000000000000000000000000000000000000000000000073ffffffffffffffffffffffffffffffffffffffff1663a9059cbb7f00000000000000000000000000000000000000000000000000000000000000007f000000000000000000000000000000000000000000000000000000000000000073ffffffffffffffffffffffffffffffffffffffff166370a08231306040518263ffffffff1660e01b81526004016106829190610761565b602060405180830381865afa15801561069d573d5f5f3e3d5ffd5b505050506040513d601f19601f820116820180604052508101906106c191906108b6565b6040518363ffffffff1660e01b81526004016106de929190610949565b6020604051808303815f875af11580156106fa573d5f5f3e3d5ffd5b505050506040513d601f19601f8201168201806040525081019061071e91906109a5565b505b565b5f73ffffffffffffffffffffffffffffffffffffffff82169050919050565b5f61074b82610722565b9050919050565b61075b81610741565b82525050565b5f6020820190506107745f830184610752565b92915050565b5f819050919050565b61078c8161077a565b82525050565b5f6020820190506107a55f830184610783565b92915050565b5f5ffd5b6107b88161077a565b81146107c2575f5ffd5b50565b5f813590506107d3816107af565b92915050565b5f602082840312156107ee576107ed6107ab565b5b5f6107fb848285016107c5565b91505092915050565b5f82825260208201905092915050565b7f4f6e6c7920636f6e7472616374206f776e65722063616e2063616c6c207468695f8201527f732066756e6374696f6e00000000000000000000000000000000000000000000602082015250565b5f61086e602a83610804565b915061087982610814565b604082019050919050565b5f6020820190508181035f83015261089b81610862565b9050919050565b5f815190506108b0816107af565b92915050565b5f602082840312156108cb576108ca6107ab565b5b5f6108d8848285016108a2565b91505092915050565b7f496e73756666696369656e742062616c616e636520696e20657363726f7700005f82015250565b5f610915601e83610804565b9150610920826108e1565b602082019050919050565b5f6020820190508181035f83015261094281610909565b9050919050565b5f60408201905061095c5f830185610752565b6109696020830184610783565b9392505050565b5f8115159050919050565b61098481610970565b811461098e575f5ffd5b50565b5f8151905061099f8161097b565b92915050565b5f602082840312156109ba576109b96107ab565b5b5f6109c784828501610991565b91505092915050565b7f546f6b656e207472616e73666572206661696c656400000000000000000000005f82015250565b5f610a04601583610804565b9150610a0f826109d0565b602082019050919050565b5f6020820190508181035f830152610a31816109f8565b905091905056fea2646970667358221220c4737400f8673a4b09e2de37c42986f17026c9f6d348d474b2336ad9e4e91b1064736f6c634300081e0033a2646970667358221220a8f7281fcb946fa3ff17f30bfba8f95f684670fcdd946d857d9c1a3366d7f92164736f6c634300081e0033","linkReferences":{}},"methodIdentifiers":{"clientCloseEscrow(address)":"1bad5872","escrowAccounts(address,address)":"88e58443","getEscrowAccountAddress(address,address)":"d08d7a31","getEscrowTokenAddress(address,address)":"71236c25","getEscrowTokenBalance(address,address)":"27baeb51","openEscrow(address,address,uint256)":"ea843a52","serverCloseEscrow(address)":"6e55c237","settlePayment(address,uint256)":"3e60e348"},"id":25}